:100000000C9446000C94831D0C9465000C946500C0
:100010000C9465000C9465000C9465000C946500CC
:100020000C9465000C9465000C9465000C946500BC
:100030000C9465000C9465000C9465000C946500AC
:100040000C94391D0C94B7240C948F290C94EC2932
:100050000C945E290C9465000C9465000C9465006A
:100060000C9465000C9465000C944B220C94650074
:100070000C9465000C94B11D0C94BD290C942B2A92
:100080000C9465000C9465000C94650011241FBE4F
:10009000CFEFD0E1DEBFCDBF1CE0A0E0B1E0E8ECE7
:1000A000F7E800E00BBF02C007900D92A636B1073B
:1000B000D9F71DE0A6E6BCE001C01D92AC32B10745
:1000C000E1F70E9406310C94E2430C940000DC013D
:1000D000CB01E0911001F091110109950895DC0127
:1000E000CB01E0913C07F0913D0709950895DF931E
:1000F000CF930F92CDB7DEB7862F1982E0914A07D2
:10010000F0914B07BE016F5F7F4F0995698170E0E9
:1001100080E090E00F90CF91DF910895862FE091DD
:100120004207F0914307622F09950895DF93CF931B
:1001300000D0CDB7DEB7862F1A821982E091A906CA
:10014000F091AA06BE016F5F7F4F099589819A8160
:10015000BC0180E090E00F900F90CF91DF91089567
:10016000862FE091C403F091C503622F099508958D
:10017000DF93CF9300D0CDB7DEB7862F1A821982D6
:10018000E091D803F091D903BE016F5F7F4F0995CD
:1001900089819A81BC0180E090E00F900F90CF910F
:1001A000DF910895E091E003F091E1030995109249
:1001B000660C08950F931F9389019A0137FD08C0BB
:1001C000E091CE03F091CF03862F60E0A8010AC032
:1001D00044275527401B510BE091CE03F091CF03EC
:1001E000862F61E009958091660C8F5F8093660C85
:1001F000813140F00E94D2001092660C80E991E0BB
:100200000197F1F71F910F910895EF92FF920F93CD
:100210001F93862FE091C803F091C903B901A7018C
:1002200009958091660C8F5F8093660C813140F058
:100230000E94D2001092660C80ED97E00197F1F7D2
:100240001F910F91FF90EF900895E091E203F091DC
:10025000E30309950895E0914608F0914708099550
:100260000895E0914C08F0914D080995E0914E08F1
:10027000F0914F0809950895E0916708F09168089A
:1002800009950895E0916D08F0916E080995E09147
:100290006F08F0917008099508950E947D410895B6
:1002A00010920601109207011092080110920901A4
:1002B0000895FC018091060190910701A091080129
:1002C000B091090180839183A283B3830895109232
:1002D0000B0110920A019C013695279545E303C056
:1002E000842F8A95F1F780910A0190910B012817CC
:1002F0003907B0F708950F931F934091060150916D
:100300000701609108017091090190E024EF31E04C
:10031000FC01E29FC001E39F900DF29F900D11241C
:100320008C01222717FD2095322F040F151F261F41
:10033000371F8091060190910701A0910801B091AB
:10034000090180179107A207B30798F31F910F9136
:1003500008958091060190910701A0910801B09144
:1003600009010196A11DB11D80930601909307011B
:10037000A0930801B093090180910A0190910B01AB
:10038000019690930B0180930A010895CF93DF9318
:10039000EC019B01FC01E456FF4FC15BDE4F8881FD
:1003A0008083CF5AD040FB0180818883239781814D
:1003B000899382818883CE59D04090E00CC0E92F88
:1003C000F0E0DE01AE0FBF1FAF55BF4FE40FF51FCA
:1003D00080818C939F5FF9018081981780F3FE01E3
:1003E000EC5AFE4F8081807C8083C156DF4F88832A
:1003F000DF91CF9108950F931F93DF93CF93CDB7E4
:10040000DEB763970FB6F894DEBF0FBECDBF8C0189
:1004100083E08983809118018A83809119018B83FD
:1004200080911B018C83E091A906F091AA06BE0180
:10043000645F7F4F0995282F813011F089E01AC041
:100440009C858D852B878D839E83C801BE016F5F40
:100450007F4FAE014C5F5F4F0E94C601F801608183
:100460007181E0918706F0918806C80184569F4FFC
:10047000099580E063960FB6F894DEBF0FBECDBF3E
:10048000CF91DF911F910F9108956F927F929F926C
:10049000AF92BF92CF92DF92EF92FF920F931F9392
:1004A000DF93CF93CDB7DEB7A7970FB6F894DEBF33
:1004B0000FBECDBF6C01E62E662311F489E05DC04E
:1004C0006C8399249394FF2400E010E0A62EBB24B3
:1004D00026E1622E712C6C0E7D1EC501002E02C01D
:1004E000959587950A94E2F780FF0FC06F2D70E015
:1004F000660F771F660D771DE091A906F091AA0699
:10050000802F0995F39482E0980E0F5F1F4F0830FB
:10051000110519F7FE017696DE0115966F2D70E034
:10052000660F771F6E0F7F1F08C0908181818C93AB
:1005300011969C93119732961296E617F707A9F732
:10054000EC8280911F018A83809120018B839982A4
:10055000C601BE016F5F7F4FAE014C5F5F4F0E94CF
:10056000C601F60160817181E0918706F0918806ED
:10057000C60184569F4F099580E0A7960FB6F89460
:10058000DEBF0FBECDBFCF91DF911F910F91FF90C6
:10059000EF90DF90CF90BF90AF909F907F906F9043
:1005A0000895EF92FF920F931F93DF93CF93CDB7F0
:1005B000DEB76E970FB6F894DEBF0FBECDBF7C01DD
:1005C0008E01025F1F4F90E0E091A906F091AA060C
:1005D000892FB8019E8F09959E8D9F5F0E5F1F4FDB
:1005E000983091F75091260140912701FE013E96E7
:1005F000DE0114969E01225E3F4F908181818C9393
:1006000011969C93119732961296E217F307A9F769
:100610004B835A8380E18983C701BE016F5F7F4F9F
:10062000AE014C5F5F4F0E94C601F701608171818E
:10063000E0918706F0918806C70184569F4F09957F
:1006400080E06E960FB6F894DEBF0FBECDBFCF919F
:10065000DF911F910F91FF90EF9008950F931F93DB
:10066000DF93CF93CDB7DEB729970FB6F894DEBFEF
:100670000FBECDBF8C01E0914C07F0914D07CE012C
:100680000696099582E08B8380912D018C83809161
:100690002E018D839E818F8189839A83C801BE013B
:1006A0006D5F7F4FAE014F5F5F4F0E94C601F80143
:1006B00060817181E0918706F0918806C8018456B7
:1006C0009F4F099580E029960FB6F894DEBF0FBEC4
:1006D000CDBFCF91DF911F910F910895AF92BF923F
:1006E000CF92DF92EF92FF920F931F93DF93CF93FE
:1006F000CDB7DEB7CC57D0400FB6F894DEBF0FBEF3
:10070000CDBF6C018091340123E0829FC001112490
:100710008983809135018A83809136018B8300E043
:100720005CE7E52EF12CEC0EFD1E44E0A42EB12C6E
:10073000AC0EBD1E16C0F7011081E02FF0E0BF0126
:10074000660F771F6A0D7B1D2091D8033091D90366
:10075000EA5EFE4F82A1F90109951823F701108383
:100760000F5F10913401011730F3F7018081813060
:1007700011F089E030C0FC800D81CE01805C9F4F7C
:10078000BC016F5F7F4F20E030E0AC0110C0FA0188
:10079000E20FF31FD901AA5EBE4F92968C9180831F
:1007A000FB010083F1822F5F3F4F6D5F7F4F211769
:1007B00070F3C601BE016F5F7F4F0E94C601F60154
:1007C00060817181E0918706F0918806C6018456A8
:1007D0009F4F099580E0C458DF4F0FB6F894DEBFF5
:1007E0000FBECDBFCF91DF911F910F91FF90EF9082
:1007F000DF90CF90BF90AF9008956F927F928F92CD
:100800009F92AF92BF92DF92EF92FF920F931F934E
:10081000DF93CF93CDB7DEB7C857D0400FB6F8946B
:10082000DEBF0FBECDBF5B0180916A01882311F44A
:1008300083E04BC0DD243E010894611C711C87E9F4
:10084000882E912C860E971E38C08D2D90E0BC010D
:10085000660F771FFC01EE0FFF1FEE0FFF1FE80F63
:10086000F91F9B01220F331F260D371DEA0DFB1DBB
:10087000F180EE24828190E08E299F29D9018D9309
:100880009C93138100E0448150E0402B512B6F5F1B
:100890007F4F660F771F660D771DDB014D935C93CD
:1008A000D9016D917C912091C8033091C903808159
:1008B000F9010995F4018083D39480916A0165E080
:1008C0000E948842D81608F280E0C858DF4F0FB661
:1008D000F894DEBF0FBECDBFCF91DF911F910F9176
:1008E000FF90EF90DF90BF90AF909F908F907F90A0
:1008F0006F900895CF92DF92EF92FF920F931F9324
:10090000DF93CF930F92CDB7DEB78B0180910502B5
:10091000882311F483E02EC090E047E9E42EF12C07
:10092000E60EF71E20C0E92FF0E0EE0FFF1FEE0FDE
:10093000FF1FD801AE0FBF1FE00FF11FD280CC24E4
:1009400013964C91139750E04C295D29E091CE030A
:10095000F091CF038C9111966C9199830995D701F1
:100960008C9399819F5F8091050286958695981753
:10097000D0F280E00F90CF91DF911F910F91FF9007
:10098000EF90DF90CF900895EF92FF921F93DF9347
:10099000CF9300D00F92CDB7DEB77C012091A1029A
:1009A0009091A2028091A002882311F483E038C0C4
:1009B00019822A839B8390E010E015C0E12FF0E0BC
:1009C000EE0FFF1FEA5EFE4FDF01A157BE4F2091E1
:1009D000C4033091C503E257FE4F80816C91F90149
:1009E0000995982F1F5F8091A0028695181730F304
:1009F000913011F089E014C0C701BE016F5F7F4FD5
:100A000044EA52E00E94C601F70160817181E091E1
:100A10008706F0918806C70184569F4F099580E0AC
:100A20000F900F900F90CF91DF911F91FF90EF905B
:100A30000895EF92FF921F93DF93CF9300D00F9210
:100A4000CDB7DEB77C012091E1029091E202809166
:100A5000E002882311F483E038C019822A839B8343
:100A600090E010E015C0E12FF0E0EE0FFF1FEA5E0E
:100A7000FE4FDF01A153BE4F2091C6033091C70343
:100A8000E253FE4F80816C91F9010995982F1F5F09
:100A90008091E0028695181730F3913011F089E0CB
:100AA00014C0C701BE016F5F7F4F44EE52E00E9449
:100AB000C601F70160817181E0918706F091880697
:100AC000C70184569F4F099580E00F900F900F90BB
:100AD000CF91DF911F91FF90EF900895CF92DF9219
:100AE000EF92FF920F931F93DF93CF93CDB7DEB7B3
:100AF00060970FB6F894DEBF0FBECDBF8C01E4E562
:100B0000CE2EE1E0DE2EC80ED91ED6012C91822F0A
:100B10008F737FE4E72E71E0F72EE00EF11E843133
:100B200009F504561F4FF7018081D8018C930C5FA3
:100B30001F4FF8011082005A1040D80113968C9173
:100B400003561F4FF80180830D591040D8011496A9
:100B50008C9102561F4FF80180830F5F1F4FD80101
:100B60002C931DC4F7019081D80112968C91129795
:100B7000981709F085C413968C91863038F4843028
:100B800008F07EC4823008F04FC47AC4873009F47C
:100B90009AC0873038F0883009F43DC1803A09F0B6
:100BA00043C4B3C3F8018481813209F45CC082324A
:100BB00030F4882341F0803209F02DC439C08036EA
:100BC00009F029C46BC0D80115968C91882309F0CF
:100BD00022C4E0914C07F0914D07CE01099609958A
:100BE000D801A456BF4FF70180818C93F80183810F
:100BF00003561F4FF80180830D591040F80184817E
:100C000002561F4FF80180830E5F1F4F82E0F801EC
:100C1000819399858A8589839A8381938F019083B3
:100C200080918005807C8093800503501040C1C274
:100C3000D80115968C911597823009F0ECC3169661
:100C40004C911697498317968C918A83342F20E014
:100C500090E0822B932B9A878987E0913C07F09153
:100C60003D0709955AC2D80115968C911597823087
:100C700009F0D1C316964C911697498317968C911B
:100C80008A83342F20E090E0822B932B9A878987E8
:100C9000E0914007F091410709950FC2D8011596E0
:100CA0008C911597813009F0B6C316968C9180937C
:100CB0002B018150843018F485E080932B01C8010A
:100CC0000E942E03A4C0F8018481813609F46CC00F
:100CD000823630F4882341F0803609F09CC342C04C
:100CE000823609F098C37FC0D80115968C91813067
:100CF00009F091C3F80186818983E091A906F091FA
:100D0000AA06BE01675F7F4F09958887813009F089
:100D1000C7C32A852A8399859B83D801A456BF4FD0
:100D2000F70180818C93F801838103561F4FF801EE
:100D300080830D591040F801848102561F4FF8013D
:100D400080830E5F1F4F83E0F80181938981819337
:100D500021938F019083F6018081807C80830450F1
:100D6000104027C2D80116969C91169790931B01AC
:100D700017968C9180931C01983010F082E04CC340
:100D8000F801878125E0829FC0011124809316011C
:100D90008150893018F48AE080931601C80160916F
:100DA0001B010E94FB0133C0D80116968C91169747
:100DB0008093220117968C911797809323011796A1
:100DC0008C9125E0829FC001112480931D018150E8
:100DD000893018F48AE080931D01C80160912201D6
:100DE0000E94450214C0F801868180932901868102
:100DF00025E0829FC0011124809324018150893015
:100E000018F48AE080932401C8010E94D10288234B
:100E100009F046C335C3F8018481843209F436C130
:100E20008532B8F4803209F4A6C0813240F48130B2
:100E3000D9F1813068F1823009F0EDC26DC08232A3
:100E400009F4D6C0D80115969C91833208F0F3C0FE
:100E5000A5C0803609F4BBC1813650F4803409F452
:100E600049C1813409F468C1853209F0D4C22EC168
:100E7000813709F4D4C1823720F4803709F0CBC21E
:100E8000EBC1823709F423C2833709F0C4C200C220
:100E9000F8018581813009F0BEC286818983E091A5
:100EA000D803F091D90346C0D80115968C911597B7
:100EB000813009F0B0C216968C918983E091DC03F1
:100EC000F091DD03BE01675F7F4FAE01455F5F4F6D
:100ED00009958887813009F0E3C2D801A456BF4F35
:100EE000015B1E4FF80180818C930F5A104085E002
:100EF000F8018193898181933A853C8399859B830D
:100F00002C852E838B858D839193319381938F01D3
:100F10002083055A104038C1D80115968C91159739
:100F2000813009F078C216968C918983E091DA03BA
:100F3000F091DB03BE01675F7F4F099588878130A1
:100F400009F0AEC2D801A456BF4F015B1E4FF80195
:100F500080818C930F5A104083E0F801819389813E
:100F600081939A859B8389858C8391938F0180835C
:100F7000035A104009C1D80115968C9115978230FB
:100F800009F049C216968C911697898317966C9131
:100F90006A83E091C403F091C503AAC0953009F0BB
:100FA0003AC2D80116968C911697898317969C9110
:100FB00017979A8318966C9118976B831996EC91F2
:100FC0001997EC831A964C914D83392F20E070E0ED
:100FD000622B732B7A8769873E2F20E050E0422BEB
:100FE000532B5C874B87E091C803F091C9034CC039
:100FF000D80115968C911597843009F00CC216967D
:101000008C911697898317966C9117976A83189617
:101010009C9118979B8319964C914C83392F20E013
:1010200050E0422B532B5A874987E091CE03F09131
:10103000CF0309956EC0953009F0EDC1D801169621
:101040008C911697898317969C9117979A83189677
:101050006C9118976B831996EC911997EC831A96FB
:101060004C914D83392F20E070E0622B732B7A87EF
:1010700069873E2F20E050E0422B532B5C874B8743
:10108000E091D403F091D503099543C0D80115969A
:101090008C911597823009F0BEC116968C911697E7
:1010A000898317966C916A83E091D603F091D703F8
:1010B00009958887813009F0F3C1D801A456BF4F44
:1010C000F70180818C9300561F4F31C0D8011596CF
:1010D0008C911597823009F09EC116968C911697C7
:1010E000898317966C916A83E091C603F091C703D8
:1010F00009950FC0D80115968C911597813009F08C
:101100008AC116968C918983E091E003F091E10306
:1011100009958887813009F0C3C1D801A456BF4F13
:10112000015B1E4FF80180818C930F5A1040F8012B
:101130001082005A104028C0D80115968C9115973E
:10114000813009F068C116968C918983E091C203C1
:10115000F091C303BE01695F7F4F0995982F88877F
:10116000813009F09DC1D801A456BF4F015B1E4FCD
:10117000F80180818C930F5A1040F80191938F01F0
:101180008F818083015A1040F801838103561F4FDD
:10119000F80180830D591040F801848102561F4FD9
:1011A000F801808380918005807C809380050F5FAB
:1011B0001F4FF80180830F591040F8016081718141
:1011C000E0918706F0918806CD01099559C1D801B3
:1011D00015968C91882309F41EC1F801E80FF11DC2
:1011E000858180933201F80185818150809334019B
:1011F00090E00BC0E92FF0E0D801AE0FBF1F1696AC
:101200008C91EA5EFE4F82A39F5F80913401981714
:1012100088F3C80168E371E00E946E0331C1D80110
:1012200015968C91882309F4F6C080936A0190E0AA
:101230000BC0E92FF0E0D801AE0FBF1F16968C91BE
:10124000E259FE4F80839F5F80916A01981788F36F
:10125000C8016EE671E038C0F8018581882309F481
:10126000DAC08093A00290E00BC0E92FF0E0D80133
:10127000AE0FBF1F16968C91EC55FD4F80839F5F7C
:101280008091A002981788F3C80164EA72E01CC03C
:10129000D80115968C91882309F4BDC08093E00293
:1012A00090E00BC0E92FF0E0D801AE0FBF1F1696FB
:1012B0008C91EC51FD4F80839F5F8091E0029817E5
:1012C00088F3C80164EE72E00E94FD03D9C0F80102
:1012D0008581882309F49FC08093050290E00BC0AC
:1012E000E92FF0E0D801AE0FBF1F16968C91E75F93
:1012F000FD4F80839F5F80910502981788F3C80196
:1013000069E072E00E947A04BBC0F80184818823FE
:1013100021F0803209F07FC044C0D80115968C912D
:101320001597813009F077C016968C918983E091EA
:101330002A04F0912B04BE016E5F7F4F09958887C8
:10134000813009F0ADC0F801E456FF4F015B1E4F3C
:10135000D8018C910F5411408083F801838103568A
:101360001F4FD8018C930D591040F801848102560B
:101370001F4FD8018C930E5F1F4F82E0F8018193BD
:101380008981DF018D938D018A818C938091800505
:10139000807C8093800503501040F801808381E0B9
:1013A00070C0D80115968C9115978230A1F51696CC
:1013B0008C911697898317966C916A83E091280423
:1013C000F09129040995F801E456FF4F015B1E4F87
:1013D000D8018C9180830F5A1040F8011082005A76
:1013E0001040D80113968C9103561F4FF80180834B
:1013F0000D591040D80114968C9102561F4FF801D8
:10140000808380918005807C809380050F5F1F4FD3
:10141000D8018C93C4CF83E0F801EC5AFE4F908141
:10142000907C982B908309C00C5A1E4F922F907C71
:101430009360F801908304551140F801E456FF4F82
:10144000015B1E4FD8018C9180830F5A1040F80128
:101450001082005A1040D80113968C9103561F4FEA
:10146000F80180830D591040D80114968C910256D2
:101470001F4FF80180830F5F1F4FD8019C938FCFC0
:1014800080E060960FB6F894DEBF0FBECDBFCF915F
:10149000DF911F910F91FF90EF90DF90CF90089513
:1014A00089E0BACFEF92FF921F93DF93CF930F9211
:1014B000CDB7DEB7182F7B01198282958F708E30E1
:1014C00011F41E3F81F4E0916806F0916906812FC6
:1014D000BE016F5F7F4F0995882329F489818117A9
:1014E00021F01E3F11F090E001C091E080916A066A
:1014F000F7018083892F0F90CF91DF911F91FF908B
:10150000EF900895FF920F931F93182FF62E082F38
:1015100002950F700E3011F08E3FA1F4812F805E86
:10152000FF2029F4E0916B07F0916C0704C0E09173
:101530007307F091740709950E3021F41E3F11F0E6
:1015400081E017C0FF2041F4E0915A06F0915B065C
:10155000812F68E140E007C0E0915A06F0915B06F8
:10156000812F68E141E00995982F811191E081E098
:1015700089271F910F91FF900895EF92FF920F938B
:101580001F93CF93DF93182FEB017A01882329F162
:10159000082F02950F700E3011F08E3F79F4E09114
:1015A0007107F0917207812F805EBE01A701099536
:1015B0008823A1F00E3011F41E3F79F4E091520619
:1015C000F0915306812F6EE1AE0197010995982F96
:1015D000811191E081E0892701C081E0DF91CF9105
:1015E0001F910F91FF90EF900895DF92EF92FF927D
:1015F0000F931F93CF93DF93182FEB017A0188236A
:1016000089F1D82ED2948FE0D8228EE0D81611F02E
:101610001E3FC9F4012F005EE0917107F09172073F
:10162000802FBE01A70109958823F1F0E09173078F
:10163000F0917407802F09958823B1F08EE0D816B9
:1016400011F41E3F79F4E0915406F0915506812F74
:101650006EE1AE0197010995982F811191E081E02B
:10166000892703C081E001C080E0DF91CF911F9105
:101670000F91FF90EF90DF900895CF92DF92EF925D
:10168000FF920F931F93DF93CF930F92CDB7DEB7E7
:10169000C82E8B017A0182958F7089838E3009F470
:1016A00091C08EEFC816A9F480914E06E2E2F3E0F5
:1016B00090E0880F991F8E0F9F1F07C01183008332
:1016C000E05CFF4FF182E082FE97E817F907B1F77F
:1016D00053C0E0917106F091720680914C06909192
:1016E0004D0660914E064C2D9E012F5F3F4F099590
:1016F000D82E81E0D81609F059C0E091D407F091B6
:10170000D50780E009958981A82FB0E0FD01EE0F93
:10171000FF1FEE5DFC4F808191818017910761F47E
:10172000FD01EE0FFF1FEE59FC4F808191818E1558
:101730009F0511F4DD240BC0AA0FBB1FFD01EE5D58
:10174000FC4F11830083AE59BC4FED92FC92E091A7
:10175000D207F091D30780E00995DD2039F10CC064
:10176000E0917307F09174078D2D099590E088231F
:1017700009F491E081E018C080914F06813049F46E
:10178000E0915C06F0915D068EE164E009951092AF
:101790004F06E0915E06F0915F068C2DB801A7011F
:1017A0000995811181E091E0982701C091E0892F8E
:1017B0000F90CF91DF911F910F91FF90EF90DF90ED
:1017C000CF90089590E2D92EDC0CE0917107F09152
:1017D00072078D2D0995882319F690E0E8CFEF92D6
:1017E000FF920F931F93CF93DF93182FE62EEA01FA
:1017F0008823B9F1F82EF2947FE0F7228EE0F816F4
:1018000011F01E3FD9F4012F005EE0916F07F091B7
:101810007007802F6E2DAE010995882321F1E0918C
:101820006D07F0916E07802F6FEF73E009958823A5
:10183000D1F08EE0F81611F41E3F99F45E2D550F8D
:10184000550F40E04C0F5D1FE0915606F091570692
:10185000812F60E20995982F811191E081E089271D
:1018600003C081E001C080E0DF91CF911F910F9113
:10187000FF90EF900895EF92FF920F931F93CF93F5
:10188000DF93082FE62EEA018823E9F1F82EF2947F
:10189000EFE0FE228EE0F81611F00E3F09F5102F52
:1018A000105EE0916F07F0917007812F6E2DAE01F1
:1018B0000995882351F1E0916D07F0916E07812F12
:1018C0006FEF73E00995882301F1E0917307F091C0
:1018D0007407812F09958EE0F81611F40E3F99F4E4
:1018E0005E2D550F550F40E04C0F5D1FE0915806DF
:1018F000F0915906802F60E20995982F811191E0AF
:1019000081E0892703C081E001C080E0DF91CF91B1
:101910001F910F91FF90EF900895BF92CF92DF92A9
:10192000EF92FF920F931F93DF93CF930F92CDB758
:10193000DEB7E82EB62E6A01F82EF2941FE0F122EF
:10194000F9828EE0F81609F44EC0962F990F990F80
:1019500080E08C01040F151F8EEFE81681F4809152
:101960004E06E2E6F3E090E0880F991F8E0F9F1F6E
:1019700002C001931193E817F907D9F734C0E09139
:101980007106F091720680914C0690914D0660911F
:101990004E064E2D9E012F5F3F4F0995F82E81E098
:1019A000F81609F065C0E091D407F091D50780E002
:1019B00009958981E82FF0E0EE0FFF1FEE59FC4FEB
:1019C000808191818017910711F4FF2402C0118357
:1019D0000083E091D207F091D30780E00995FF20C2
:1019E00009F446C024C01E2D105EE0916F07F091EF
:1019F0007007812F6B2DA60109958823D9F1E091FD
:101A00006D07F0916E07812F6FEF73E009958823C2
:101A100089F1E0917307F0917407812F099588236C
:101A200049F18EE0F81619F48EEFE81609F5809169
:101A30004F06813049F4E0915C06F0915D068EE13D
:101A400064E0099510924F065B2D550F550F40E04D
:101A50004C0D5D1DE0915E06F0915F068E2D60E0FD
:101A600072E00995982F811191E081E0892703C0E8
:101A700081E001C080E00F90CF91DF911F910F9125
:101A8000FF90EF90DF90CF90BF900895EF92FF927C
:101A90000F931F93CF93DF93182FEB017A01082F39
:101AA00002950F700E3011F08E3F89F4E0916507BA
:101AB000F0916607812F805EBE01A70109958823FA
:101AC000A1F00E3021F41E3F11F081E00EC0E09134
:101AD0005406F0915506812F66E0AE0197010995F5
:101AE000982F811191E081E08927DF91CF911F919B
:101AF0000F91FF90EF900895982F462F82958F7049
:101B00008E3011F490E00BC0E0915A06F0915B0624
:101B1000892F63E0099590E0882309F491E0892FEB
:101B200008951F93CF93DF93182FEB0182958F7049
:101B30008E3051F4E0916907F0916A07812F805E41
:101B40000995882391F40DC0E0916406F091650633
:101B5000812F64E2AE010995982F811191E081E017
:101B60008927DF91CF911F9108951E3F69F381E08E
:101B7000F8CF8F929F92AF92BF92CF92DF92EF9267
:101B8000FF920F931F93DF93CF930F92CDB7DEB7E2
:101B9000A82F7B016A0149015801282F22952F7037
:101BA0002E3009F45AC08E3F09F457C0E0917106F7
:101BB000F091720680914C0690914D0660914E0610
:101BC00029834A2F9E012F5F3F4F0995813009F0ED
:101BD00053C0E981F0E0EE0FFF1FEE5DFC4F608126
:101BE00071814CC0E61AF70AB70105C0E616F70680
:101BF000D8F46E197F0980E090E07B018C018AE0C7
:101C0000EE0CFF1C001F111F8A95D1F7960140E0D2
:101C100050E0C801B7010E94A74221503040F4E0D3
:101C200020303F0740F404C0F5011182108215C036
:101C30008C2D4D2D0CC0D801C7010AE0B695A79593
:101C4000979587950A95D1F7492F2FEF33E0F50146
:101C500080834183F4013183208381E00F90CF9111
:101C6000DF911F910F91FF90EF90DF90CF90BF9089
:101C7000AF909F908F90089560E070E06E157F05A3
:101C800008F4B0CFB3CF982FAB0182958F708E3010
:101C900071F09E3F61F0E0916406F0916506892F36
:101CA00068E2099590E0882319F491E001C090E082
:101CB000892F0895982FDB019A0182958F708E30BD
:101CC00069F4E0916707F0916807892F805E0995B4
:101CD00090E0882309F491E081E00BC0E091660672
:101CE000F0916706892F66E0AD010995811181E0C9
:101CF00091E09827892F0895E0917307F091740778
:101D00008EE10995882311F490E009C0E091620604
:101D1000F0916306099590E0882309F491E0892FFA
:101D20000895E0916006F0916106099581E0809345
:101D30004F060895DF92EF92FF920F931F93DF9368
:101D4000CF9300D000D0CDB7DEB7082FE62E1A8291
:101D500019821C821B828E3F11F410E01FC060E0CC
:101D60000E94820A182F882309F4A0C0802FBE0188
:101D70006F5F7F4FAE014D5F5F4F0E945A0E8981AA
:101D80009A81892B41F48B819C81892B21F481E0FC
:101D9000E81621F489C0EE2009F486C0D02ED29432
:101DA0003FE0D3228EE0D81619F00E3F09F045C06F
:101DB000EE2021F081E0E816C1F50DC0E091650745
:101DC000F0916607802F805E60E070E04FEF53E097
:101DD0000995182F2AC020E2F22EF00EE091650737
:101DE000F09166078F2D60E070E040E050E00995CB
:101DF000182F882309F45AC0E0916F07F0917007FB
:101E00008F2D61E040E050E0099588E592E020E9FF
:101E100031E0F9013197F1F70197D9F7E0916B07BC
:101E2000F0916C078F2D099503C0112309F43EC072
:101E30008EE0D81611F40E3FB9F5EE2021F081E0C6
:101E4000E81661F516C0E0915406F0915506802F12
:101E500066E040E050E02FEF33E00995182F88EC62
:101E600090E020E931E0F9013197F1F70197D9F7D6
:101E700015C0E0915406F0915506802F66E040E0D1
:101E800050E020E030E00995182F88EC90E020E940
:101E900031E0F9013197F1F70197D9F7912F11113D
:101EA00091E081E0892703C081E001C080E00F90CC
:101EB0000F900F900F90CF91DF911F910F91FF9096
:101EC000EF90DF900895EF92FF920F931F93CF93BF
:101ED000DF939C01F62E80E28617B0F18901D901CB
:101EE00060E0E22E0FC09C91892F82958F708E301A
:101EF00041F09E3F31F0E62FF0E0EE55FC4F90832D
:101F00006F5F11968A2F8E198F1568F3E091500636
:101F1000F091510682EA93E00995C2E2D3E010C045
:101F2000F8018081BE010E94910D882311F419826D
:101F30001882C05CDF4F198218820F5F1F4FEE9727
:101F4000802F8E198F1560F3DF91CF911F910F9124
:101F5000FF90EF900895803410F080E00895E82F0E
:101F6000F0E0EA51FC4F608381E00895DB018034AA
:101F700010F080E00895E82FF0E0EA51FC4F8081F6
:101F80008C9381E00895E6EEF3E0119284E0E6326E
:101F9000F807D9F78BEA9FE09383828386EB9FE073
:101FA000958384830895CF92DF92EF92FF920F93EF
:101FB0001F93182F062FD42EF52EC22EE32EE0915C
:101FC000D407F091D50780E009951093930584E03C
:101FD000809394050093950580939705F092990559
:101FE000D0929805E0929B05C0929A05E0914A062E
:101FF000F0914B06078CF0A1E02D099560914A06FF
:1020000070914B06E0916D06F0916E0683E995E0C4
:102010000995182F8823C1F460914A0670914B06E8
:10202000E0916B06F0916C0681E895E00995182F18
:10203000882351F49091810580919305981721F49C
:102040008091820580936A06E091D207F091D307D0
:1020500080E00995812F1F910F91FF90EF90DF9005
:10206000CF900895CF92DF92EF92FF920F931F933C
:10207000182F062FD42EF52EC22EE32EE091D40772
:10208000F091D50780E009951093930583E0809344
:1020900094050093950584E080939705F092990547
:1020A000D0929805E0929B05C0929A05E0914A066D
:1020B000F0914B06078CF0A1E02D099560914A063E
:1020C00070914B06E0916D06F0916E0683E995E004
:1020D0000995182F8823C1F460914A0670914B0628
:1020E000E0916B06F0916C0681E895E00995182F58
:1020F000882351F49091810580919305981721F4DC
:102100008091820580936A06E091D207F091D3070F
:1021100080E00995812F1F910F91FF90EF90DF9044
:10212000CF900895EF92FF920F931F93182F062FD1
:102130007A01E091D407F091D50780E009951093DA
:10214000930584E0809394050093950582E0809345
:102150009705F0929905E0929805E0914A06F09172
:102160004B06078CF0A1E02D099560914A0670910D
:102170004B06E0916D06F0916E0683E995E00995B6
:10218000182F8823C1F460914A0670914B06E091A4
:102190006B06F0916C0681E895E00995182F88236D
:1021A00051F49091810580919305981721F48091C5
:1021B000820580936A06E091D207F091D30780E010
:1021C0000995812F1F910F91FF90EF900895EF9245
:1021D000FF920F931F93182F062F7A01E091D407D7
:1021E000F091D50780E009951093930583E08093E3
:1021F00094050093950582E080939705F0929905E8
:10220000E0929805E0914A06F0914B06078CF0A108
:10221000E02D099560914A0670914B06E0916D069C
:10222000F0916E0683E995E00995182F8823C1F493
:1022300060914A0670914B06E0916B06F0916C0636
:1022400081E895E00995182F882351F49091810534
:1022500080919305981721F48091820580936A06F6
:10226000E091D207F091D30780E00995812F1F916B
:102270000F91FF90EF900895FF920F931F93182FE7
:10228000062FF42EE091D407F091D50780E0099550
:102290001093930583E0809394050093950581E066
:1022A00080939705F0929805E0914A06F0914B06CD
:1022B000078CF0A1E02D099560914A0670914B06BC
:1022C000E0916D06F0916E0683E995E00995182F6F
:1022D0008823C1F460914A0670914B06E0916B0629
:1022E000F0916C0681E895E00995182F882351F448
:1022F0009091810580919305981721F48091820532
:1023000080936A06E091D207F091D30780E00995A7
:10231000812F1F910F91FF9008950F931F93182FF6
:10232000062FE091D407F091D50780E0099510932E
:10233000C8050093C905E091D207F091D30780E06A
:1023400009951F910F910895DF92EF92FF920F93DD
:102350001F93DF93CF930F92CDB7DEB7182FF62ED2
:10236000072FD42EE52E1982E091D407F091D507DE
:1023700080E00995E0917106F091720680914C061B
:1023800090914D0660914E06412F9E012F5F3F4F69
:102390000995813011F013E02BC02091A705A98188
:1023A000E8EAF5E090E004C08191A81721F09F5F72
:1023B0009217D0F32DC0B0E0FD01EE0FFF1FEE0F1E
:1023C000FF1FEB55FA4F06A3FD01EE0FFF1FEE0FA7
:1023D000FF1FE653FA4FF082AA0FBB1FAA0FBB1FC5
:1023E000FD01E353FA4FE082A453BA4FDC9210E0B0
:1023F000E091D207F091D30780E00995812F0F90EB
:10240000CF91DF911F910F91FF90EF90DF90089592
:10241000E22FF0E0EF57FA4FA7A32F5F2093A70515
:10242000CACFE091D407F091D50780E0099560917B
:102430004C0670914D0640914A0650914B06E09132
:102440006F06F091700687EA95E00995E091D20752
:10245000F091D30780E0099508951F93E091D40788
:10246000F091D50780E009958EEF8093930585E084
:102470008093940560914A0670914B06E0916D0639
:10248000F0916E0683E995E00995182FE091D20747
:10249000F091D30780E00995812F1F9108950F9344
:1024A0001F93CF93DF93182F062FEA01E091D407F3
:1024B000F091D50780E009951093930582E0809311
:1024C00094050093950580939605E0914A06F09156
:1024D0004B06078CF0A1E02D099560914A0670919A
:1024E0004B06E0916D06F0916E0683E995E0099543
:1024F000182F882341F560914A0670914B06E091B0
:102500006B06F0916C0681E895E00995182F8823F9
:10251000D1F490918105809193059817A1F4809151
:102520008305823011F013E00EC080918205809304
:102530006A069091850580E02091840530E0822B29
:10254000932B99838883E091D207F091D30780E0A1
:102550000995812FDF91CF911F910F910895EF92EF
:10256000FF920F931F93CF93DF93182F062FEA014B
:102570007901E091D407F091D50780E00995109397
:10258000930582E0809394050093950584E0809301
:102590009605E0914A06F0914B06078CF0A1E02DDC
:1025A000099560914A0670914B06E0916D06F09195
:1025B0006E0683E995E00995182F8823A1F56091AF
:1025C0004A0670914B06E0916B06F0916C0681E82B
:1025D00095E00995182F882331F590918105809118
:1025E0009305981701F580918305843011F013E06D
:1025F0001AC08091820580936A0640918605609199
:1026000087059091850580E02091840530E0822B3C
:10261000932B99838883962F80E050E0842B952B11
:10262000F70191838083E091D207F091D30780E096
:102630000995812FDF91CF911F910F91FF90EF901E
:1026400008951F93CF93DF93182FEB01E091D407E8
:10265000F091D50780E009951093930581E0809370
:102660009405E0914A06F0914B06078CF0A1E02D0D
:10267000099560914A0670914B06E0916D06F091C4
:102680006E0683E995E00995182F8823A9F46091D7
:102690004A0670914B06E0916B06F0916C0681E85A
:1026A00095E00995182F882339F480918105888356
:1026B0008091820580936A06E091D207F091D3075A
:1026C00080E00995812FDF91CF911F9108956132AC
:1026D00010F080E0089590934D0680934C06109280
:1026E000A70560934E0681E080934F0608956F9290
:1026F0007F928F929F92BF92CF92DF92EF92FF9242
:102700000F931F93DF93CF930F92CDB7DEB73C01AA
:102710004B016A01DC018C91882311F483E088C0AD
:10272000DA015996ED91FC915A978FEF0995D601F0
:102730005996ED91FC915A978FEF0995D6015996CC
:10274000ED91FC915A978EEF0995F30112A11F5F4D
:102750008081189F102D11241C5FD6015996ED9190
:10276000FC915A97812F0995D6015996ED91FC91CC
:102770005A9783E80995D6015996ED91FC915A979D
:10278000D30191968C910995F30101A1D601599637
:10279000ED91FC915A97D30192968C910995F30192
:1027A00082A1080F0F57010FBB242EC0F301EB0DC0
:1027B000F11D7F010894E11CF11C8181F401E80FF7
:1027C000F11D1081812FF9010995010F90E017C0CB
:1027D000D701EC91F0E0EE0FFF1FEE0FFF1FE60DAB
:1027E000F71DE90FF11D13A1D6015996ED91FC914A
:1027F0005A97812F99830995010F99819F5FF30162
:1028000082A1981728F3B394D3018C91F601218DFE
:10281000328DB81658F2802F8095F9010995D301B1
:102820001C92D6015B96ED91FC915C97099580E036
:102830000F90CF91DF911F910F91FF90EF90DF905C
:10284000CF90BF909F908F907F906F9008958F92C0
:102850009F92AF92BF92DF92EF92FF920F931F93DE
:10286000DF93CF930F92CDB7DEB77C015B01198266
:10287000DD24D3944E010894811C911C08C00F5F85
:102880001F4F82E00D3B180721F484E068C000E090
:1028900010E0D5015D96ED91FC915E970995882336
:1028A00071F3D5015796ED91FC915897C4010995A4
:1028B000B3E0DB16A1F0BD1538F0E1E0DE1659F00B
:1028C000F2E0DF16E1F407C084E0D81659F0A5E085
:1028D000DA16A9F410C089818F3FD1F53AC08981F9
:1028E000F7011CC089818250D70112968C938031E8
:1028F00080F182E034C08981F70181832AC0D70149
:1029000012963C91ED2DF0E0832F90E005968E1706
:102910009F0734F0EE0DFF1D33978981808319C026
:10292000F70190818181980F9E5F930F20E006C090
:10293000F701E20FF11D8381980F2F5F2317C0F37A
:1029400090958981981711F480E009C084E107C04F
:10295000DD24D394F5E1FD1508F099CF85E00F90C3
:10296000CF91DF911F910F91FF90EF90DF90BF907B
:10297000AF909F908F900895AF92BF92CF92DF92C9
:10298000EF92FF920F931F93DF93CF930F92CDB7E8
:10299000DEB75C018B01DB015996ED91FC915A97F2
:1029A0008FEF0995D8015996ED91FC915A978FEFC9
:1029B0000995D8015996ED91FC915A97D5018C91C2
:1029C0000995F50181818330E1F1843030F4813063
:1029D00009F4C5C0823039F408C0843009F475C0E8
:1029E000853009F4BCC083E0DDC0D8015996ED9173
:1029F000FC915A9784E00995D8015996ED91FC9184
:102A00005A97D50111968C910995D8015996ED9157
:102A1000FC915A97D50112968C910995D801599637
:102A2000ED91FC915A97D50113968C910995F5017A
:102A300080819181890F8C5F9281890F9381890FA9
:102A4000A3C0F5018481D8015996ED91FC915A9764
:102A50008D5F0995D8015996ED91FC915A97D50152
:102A600011968C910995D8015996ED91FC915A9740
:102A7000D50112968C910995F501C080F480D18022
:102A8000E28090E00EC0F501E90FF11DD8015996E2
:102A90002D913C915A9785819983F90109959981E6
:102AA0009F5FF5013481931770F39C2D9F0D9D5FFF
:102AB0009D0D9E0D20E006C0F501E20FF11D858100
:102AC000980F2F5F2317C0F343C0F5018481D8010D
:102AD0005996ED91FC915A978D5F0995D8015996B9
:102AE000ED91FC915A97D50111968C910995D801D9
:102AF0005996ED91FC915A97D50112968C910995B2
:102B0000F501C080F480D180E28090E00EC0F50134
:102B1000E90FF11DD80159962D913C915A97858165
:102B20009983F901099599819F5FF5013481931784
:102B300070F39C2D9F0D9D5F9D0D9E0D20E006C0A6
:102B4000F501E20FF11D8581980F2F5F2317C0F368
:102B5000D8015996ED91FC915A97892F1AC0D80146
:102B60005996ED91FC915A9782E00995D8015996B2
:102B7000ED91FC915A97D50111968C910995F5012B
:102B800080819181890F8E5FD8015996ED91FC91DA
:102B90005A9780950995D8015B96ED91FC915C97C9
:102BA000099580E00F90CF91DF911F910F91FF90D9
:102BB000EF90DF90CF90BF90AF900895D901FC01C6
:102BC00090E007C08191481719F49C9381E0089523
:102BD0009F5F9617B8F380E00895FC0140E02681DE
:102BE0003781848195812817390709F441E0842FC2
:102BF0000895DC011696ED91FC9117976083169667
:102C00002D913C9117972F5F3F4F17963C932E9332
:102C1000169712964D915C91139711968C9111977E
:102C2000BA01680F711D2617370720F017965C93BD
:102C30004E93169716962D913C91179714968D9159
:102C40009C9115972817390721F48C91807C8D6011
:102C50008C930895CF93DF93FC01EB01A481B581A0
:102C6000868197818A179B0711F480E014C08C91AC
:102C70008883248135812F5F3F4F358324834281B0
:102C800053818181BA01680F711D2617370710F033
:102C90005583448381E0DF91CF910895FC01268123
:102CA0003781848195812817390710F0922F02C04F
:102CB000821B9181981B892F0895FC0180810895C2
:102CC000FC01848195819783868380E880830895C1
:102CD000CF93DF93EC011882662311F483E014C0D4
:102CE0006983862F90E00E94DD429C018881211536
:102CF000310519F4807C896007C03B832A833F83B8
:102D00002E833D832C8380688883DF91CF91089543
:102D10008F929F92AF92BF92CF92DF92FF920F93CA
:102D20001F93DF93CF930F92CDB7DEB76C015B019A
:102D30001982FF24F3944E010894811C911C08C051
:102D40000F5F1F4F85E00937180721F484E058C052
:102D500000E010E0D5015D96ED91FC915E9709953C
:102D6000882371F3D5015796ED91FC915897C401D2
:102D70000995B3E0FB16D1F0BF1538F0E1E0FE167F
:102D800069F0F2E0FF1619F50DC085E0F816B1F014
:102D9000F81678F0A6E0FA16D1F414C089818535CA
:102DA00041F528C089818A3A21F524C08981F6013C
:102DB0001EC08981D60113968C931CC08981F601AF
:102DC000818318C08981D60112968C9313C0EF2D90
:102DD000F0E0D60113968C9190E006968E179F072F
:102DE00014F480E00DC0EC0DFD1D339789818083C4
:102DF00001C0FF24F394BDE9BF1508F0A9CF85E019
:102E00000F90CF91DF911F910F91FF90DF90CF90A6
:102E1000BF90AF909F908F900895EF92FF920F9385
:102E20001F93DF93CF930F92CDB7DEB77C018B0159
:102E3000DB015996ED91FC915A9785E50995D801EA
:102E40005996ED91FC915A978AEA0995D8015996BD
:102E5000ED91FC915A97D7018C910995D80159961B
:102E6000ED91FC915A97D70114968C910995D80150
:102E70005996ED91FC915A97D70111968C9109952D
:102E8000D8015996ED91FC915A97D70112968C91E1
:102E90000995D8015996ED91FC915A97D70113964F
:102EA0008C91099590E00EC0F701E90FF11DD80152
:102EB00059962D913C915A9785819983F9010995ED
:102EC00099819F5FF7013481931770F3908181811D
:102ED000980F91508281980F8381980F930F20E073
:102EE00006C0F701E20FF11D8581980F2F5F2317B0
:102EF000C0F3D8015996ED91FC915A97892F099505
:102F0000D8015B96ED91FC915C97099580E00F905C
:102F1000CF91DF911F910F91FF90EF9008958F92C5
:102F20009F92AF92BF92DF92EF92FF920F931F9307
:102F3000DF93CF930F92CDB7DEB77C015B0119828F
:102F4000DD24D3944E010894811C911C08C00F5FAE
:102F50001F4F85E00937180721F484E069C000E0BD
:102F600010E0D5015D96ED91FC915E97099588235F
:102F700071F3F894D5015796ED91FC915897C401DF
:102F800009957894B3E0DB16C1F0BD1538F0E1E0A7
:102F9000DE1659F0F2E0DF16E1F40BC084E0D8163B
:102FA00079F0A5E0DA16A9F410C089818535C9F554
:102FB00039C089818A3AA9F535C08981F70118C0DD
:102FC0008981D70114968C932DC08981F701838361
:102FD00029C0D70114963C91ED2DF0E0832F90E0AD
:102FE00005968E179F0734F0EE0DFF1D32978981ED
:102FF000808318C0F70190818381980F9150930FBF
:1030000020E006C0F701E20FF11D8581980F2F5FC8
:103010002317C0F38981981711F084E109C080E07B
:1030200007C0DD24D394FFE0FD1508F098CF85E0BC
:103030000F90CF91DF911F910F91FF90EF90DF9054
:10304000BF90AF909F908F900895EF92FF920F9353
:103050001F93DF93CF930F92CDB7DEB77C018B0127
:10306000DB015996ED91FC915A9785E50995D801B8
:103070005996ED91FC915A978AEA0995D80159968B
:10308000ED91FC915A97D7018C910995D8015996E9
:10309000ED91FC915A97D70113968C910995D8011F
:1030A0005996ED91FC915A97D70111968C910995FB
:1030B000D8015996ED91FC915A97D70112968C91AF
:1030C000099590E00EC0F701E90FF11DD80159965E
:1030D0002D913C915A9784819983F90109959981A1
:1030E0009F5FF7013381931770F390818181980F6F
:1030F00091508281980F930F20E006C0F701E20FF4
:10310000F11D8481980F2F5F2317C0F3D8015996C2
:10311000ED91FC915A97892F0995D8015B96ED9115
:10312000FC915C97099580E00F90CF91DF911F9102
:103130000F91FF90EF900895FC01349902C080E058
:10314000089584B145B1342F20E090E0282B392B2D
:1031500031832083349A81E00895E82FDB018830A1
:1031600090F48091890690E08F739070892B59F4C8
:10317000F0E0EE0FFF1FED56F94F808191818D93A6
:103180009C9381E0089580E00895E9E8F6E0E80F77
:10319000F11D82818F7187B9369A08951F938091AE
:1031A0008A06182F1F5F90E0880F991FE091A706ED
:1031B000F091A8068D56994F0995882331F4809196
:1031C0008906807C896080938906183008F010E0B9
:1031D000E091A506F091A606812F099510938A0625
:1031E0001F910895109261001092620017B887E84D
:1031F00086B9369A87E080938B0610928C0681E020
:1032000080938D0682E080938E0683E080938F0604
:1032100084E08093900685E08093910686E0809319
:10322000920685EC98E19093A6068093A5068CE91A
:1032300098E19093A8068093A7068DEA98E1909371
:10324000AA068093A90610928A0680E880938906D0
:10325000089570E08430C0F04AB78450282F30E0E1
:10326000220F331F83E090E0022E02C0880F991FC7
:103270000A94E2F78095842302C0660F771F2A958F
:10328000E2F7862B8ABF089540916A00282F30E02C
:10329000220F331F83E090E0022E02C0880F991F97
:1032A0000A94E2F78095842302C0660F771F2A955F
:1032B000E2F7862B80936A00089599B721E030E009
:1032C00002C0220F331F8A95E2F7922B99BF08950F
:1032D00099B721E030E002C0220F331F8A95E2F750
:1032E0002095292329BF08951092AB0688989098BD
:1032F00080E063E00E94291989B7816089BF89E273
:1033000099E19093AF068093AE068DE599E1909395
:10331000B1068093B00688E699E19093B306809356
:10332000B2068091AB0680688093AB060895CF9279
:10333000DF92EF92FF920F931F93CF93DF938C0155
:10334000C5EED6E0DE015896BE016053704040E005
:1033500050E081E0E82EF12CC701042E02C0880F56
:10336000991F0A94E2F780239123E881F9813C9127
:10337000892BC9F02081C70102C0880F991F3A9597
:10338000E2F7282B2083FB01C080D180F601208149
:10339000C7010C9002C0880F991F0A94E2F780952C
:1033A0008223808318C02081C70102C0880F991F23
:1033B0003A95E2F7809582238083FB01C080D1801B
:1033C000F6012081C7010C9002C0880F991F0A9452
:1033D000E2F7282B20834F5F5F4F229611966E5F96
:1033E0007F4F4C30510509F0B7CF1F7010933B074A
:1033F00000933A07DF91CF911F910F91FF90EF90CB
:10340000DF90CF9008950F931F93CF93DF938C019C
:10341000C5EBD6E0ADEFB6E040E050E061E070E033
:10342000CB01042E02C0880F991F0A94E2F7802373
:103430009123E881F9813C91892B51F02081CB01C6
:1034400002C0880F991F3A95E2F7282B20830AC003
:103450002081CB0102C0880F991F3A95E2F7809531
:10346000822380834F5F5F4F229611964C30510527
:10347000B9F6DF91CF911F910F91089520913A07EE
:1034800030913B07822393230E94031A08958C30C6
:10349000F0F5A82FB0E041E050E0CA010A2E02C0CA
:1034A000880F991F0A94E2F720913A0730913B0761
:1034B00082239323892B59F1FD01EE0FFF1FAC549A
:1034C000B94F662381F0EC54F94F0180F281E02D71
:1034D0008081A75BBF4F0C9002C0440F551F0A9418
:1034E000E2F7842B11C0EC54F94F0180F281E02DFA
:1034F0009081A75BBF4F0C9002C0440F551F0A94E8
:10350000E2F7842F80958923808381E0089580E00D
:1035100008950F931F93CF93DF93EC01ADECB6E0CA
:1035200040E050E020E030E001E010E0ED91FC915F
:103530001197808190E0F901E350F94F008002C0BB
:10354000959587950A94E2F780FF0AC0C801022E7C
:1035500002C0880F991F0A94E2F7482B592B0BC021
:10356000C801022E02C0880F991F0A94E2F78095C5
:103570009095482359232F5F3F4F12962C303105E9
:10358000A9F659834883DF91CF911F910F91089538
:103590000F931F93DF93CF9300D0CDB7DEB78C018D
:1035A0001A821982CE0101960E94891A80913A07E7
:1035B00090913B078095909529813A8182239323AE
:1035C000F801918380830F900F90CF91DF911F912D
:1035D0000F910895CF93DF93EB018C3078F5A82FEE
:1035E000B0E041E050E0CA010A2E02C0880F991FE6
:1035F0000A94E2F720913A0730913B078223932304
:10360000892BE1F4FD01EE0FFF1FEC54F94F018C03
:10361000F28DE02D8081A350B94F2C91022E02C073
:10362000440F551F0A94E2F7842390E002C0959559
:1036300087952A95E2F7888381E001C080E0DF91D9
:10364000CF910895809121078F5F80932107883063
:1036500010F010922107E0912107F0E086B3EC54BE
:10366000F94FEB5AFF4F808380B33896808381B146
:10367000389680830895AF92BF92CF92DF92EF92F7
:10368000FF920F931F93DF93CF93CDB7DEB72C97A5
:103690000FB6F894DEBF0FBECDBF6C01FE013196B0
:1036A0008CE0DF011D928A95E9F760912107062FD2
:1036B00010E0095F1F4F5F012CC0683010F4762FB7
:1036C00002C0762F785022E237E0A90145525040DF
:1036D000D501E72EFF24F901808191818E0D9F1D78
:1036E000FC01808190E0FA01008002C095958795E9
:1036F0000A94E2F780FF03C08C918F5F8C932E5F5A
:103700003F4F4F5F5F4F1196F7E02A333F0719F79E
:103710006F5F862F90E0081719077CF640E050E0B5
:1037200020E030E0DE01119661E070E0FD01E20F83
:10373000F31F8081853048F0FB01022E02C0EE0F9E
:10374000FF1F0A94E2F74E2B5F2B2F5F3F4F2C3069
:10375000310561F7D6014D935C932C960FB6F89422
:10376000DEBF0FBECDBFCF91DF911F910F91FF90B4
:10377000EF90DF90CF90BF90AF900895CF93DF93FD
:103780008C3010F080E033C02091210730E0422FD0
:1037900050E0495F5F4F90E0DC01AA0FBB1FAE5DB8
:1037A000B84FEC01C350D94F16C0283010F4822F07
:1037B00002C0822F8850ED91FC911197E80FF11D06
:1037C000808190E0088002C0959587950A94E2F781
:1037D00080FD3F5F2F5F822F90E0481759072CF73D
:1037E000FB011082353010F081E0808381E0DF91B1
:1037F000CF9108951092B40683E290E09093B606BC
:103800008093B5069093B8068093B7069093BA0656
:103810008093B9069093BC068093BB0628E330E002
:103820003093BE062093BD063093C0062093BF069A
:103830009093C2068093C1069093C4068093C306FA
:1038400082E390E09093C6068093C5069093C806E5
:103850008093C7063093CA062093C9069093CC067E
:103860008093CB0681E290E09093CE068093CD06C4
:103870009093D0068093CF069093D2068093D10682
:103880009093D4068093D30626E330E03093D60697
:103890002093D5063093D8062093D7069093DA0666
:1038A0008093D9069093DC068093DB0680E390E05A
:1038B0009093DE068093DD069093E0068093DF060A
:1038C0003093E2062093E1069093E4068093E306AA
:1038D00082E290E09093E6068093E5069093E806F6
:1038E0008093E7069093EA068093E9069093EC06AE
:1038F0008093EB0627E330E03093EE062093ED064D
:103900003093F0062093EF06E4EBF6E096AF85AF38
:103910009093F4068093F30681E390E09093F6068B
:103920008093F5069093F8068093F7063093FA0695
:103930002093F9069093FC068093FB0685E0809324
:10394000FD0624E02093FE0637E03093FF0696E064
:1039500090930007809301079093020783E0809380
:10396000030782E0809304072093050781E080939A
:103970000607309307079093080789E197E0909333
:103980002307809322079093250780932407909321
:10399000270780932607909329078093280729E01B
:1039A00037E030932B0720932A0730932D0720937D
:1039B0002C0790932F0780932E07909331078093C5
:1039C000300781E197E0909333078093320790931B
:1039D0003507809334073093370720933607909349
:1039E00039078093380780E090E00E94971980E0C3
:1039F00090E00E94031A1092210787E999E19093C1
:103A00003D0780933C0783E09AE190933F078093C2
:103A10003E078EE39AE1909341078093400787E445
:103A20009AE1909343078093420789E89AE1909343
:103A300045078093440788EC9AE190934707809369
:103A400046078AEE9AE190934907809348078EEBE8
:103A50009BE190934B0780934A078BE39BE1909304
:103A60004D0780934C078091B40680688093B4061C
:103A7000089578941F920F920FB60F920BB60F9283
:103A800011242F933F934F935F936F937F938F9363
:103A90009F93AF93BF93EF93FF93E091CE07F09185
:103AA000CF0780E00995E091C807F091C90783E846
:103AB00009958091670C8F5F8093670C853140F08A
:103AC0001092670CE0915907F0915A0781E009952F
:103AD0000E940E42E091CE07F091CF0786E0099553
:103AE000FF91EF91BF91AF919F918F917F916F91D6
:103AF0005F914F913F912F910F900BBE0F900FBE92
:103B00000F901F9018951F920F920FB60F920BB641
:103B10000F9211242F933F934F935F936F937F9353
:103B20008F939F93AF93BF93EF93FF93E0915907C8
:103B3000F0915A0780E009950E949024FF91EF913F
:103B4000BF91AF919F918F917F916F915F914F91B5
:103B50003F912F910F900BBE0F900FBE0F901F90B3
:103B6000189578941F920F920FB60F920BB60F9282
:103B700011242F933F934F935F936F937F938F9372
:103B80009F93AF93BF93EF93FF93E091D407F0918E
:103B9000D50780E009950E94CE180E9456220E9407
:103BA000221B0E94A124E091D207F091D30780E06C
:103BB0000995FF91EF91BF91AF919F918F917F9167
:103BC0006F915F914F913F912F910F900BBE0F908E
:103BD0000FBE0F901F9018954BB390E0049621E014
:103BE00030E002C0220F331F8A95E2F7422B4BBB15
:103BF00008954BB390E0049621E030E002C0220F1C
:103C0000331F8A95E2F7209524232BBB08954BB3ED
:103C100090E0049621E030E002C0220F331F8A9525
:103C2000E2F742274BBB089590E024E0880F991FEC
:103C30002A95E1F78BBB0895109250078AB3806FE5
:103C40008ABB8BB38F708BBB84E19EE1909354074A
:103C50008093530789EF9DE1909356078093550712
:103C60008CEE9DE1909358078093570787E09EE183
:103C700090935A07809359078091500780688093EA
:103C800050070895EF92FF920F931F93CF93DF9306
:103C90008B017A018E3109F04EC0C0E0D0E0FE0108
:103CA000EE0FFF1FEC0FFD1FEE0FFF1FEE0FFF1FAC
:103CB000E853F34F82858F3009F08DC084E00030E7
:103CC000180710F00FEF13E080E0E81684E0F80624
:103CD00020F03FEFE32E33E0F32EB80180E090E0D8
:103CE00024EF31E040E050E00E94694224E09695E4
:103CF0008795779567952A95D1F7605C704EFE01A0
:103D0000EE0FFF1FEC0FFD1FEE0FFF1FEE0FFF1F4B
:103D1000DF01A653B34F11967C936E93C701880FB2
:103D2000991FE853F34F918380832196C830D105C2
:103D300009F0B5CF4EC0883008F04DC0C82FD0E094
:103D4000FE01EE0FFF1FEC0FFD1FEE0FFF1FEE0F2A
:103D5000FF1FE853F34F82858F30E9F5B80184E007
:103D60000030180710F06FEF73E080E090E024EF70
:103D700031E040E050E00E94694254E0969587951A
:103D8000779567955A95D1F7605C704EFE01EE0FFE
:103D9000FF1FEC0FFD1FEE0FFF1FEE0FFF1FE6537F
:103DA000F34F71836083A70184E04030580710F01F
:103DB0004FEF53E0440F551FFE01EE0FFF1FEC0FB6
:103DC000FD1FEE0FFF1FEE0FFF1FE853F34F518350
:103DD000408381E001C080E0DF91CF911F910F917E
:103DE000FF90EF9008958E3109F59B0184E06030DB
:103DF000780710F02FEF33E0220F331F40E050E040
:103E0000FA01EE0FFF1FE40FF51FEE0FFF1FEE0F7D
:103E1000FF1FE853F34F8285803F11F431832083E5
:103E20004F5F5F4F4830510559F728C0883040F543
:103E3000482F50E0FA01EE0FFF1FE40FF51FEE0FC1
:103E4000FF1FEE0FFF1FE853F34F8285803FC1F441
:103E50009B0184E06030780710F02FEF33E0220FF1
:103E6000331FFA01EE0FFF1FE40FF51FEE0FFF1FC8
:103E7000EE0FFF1FE853F34F3183208381E0089555
:103E800080E00895FF920F931F93CF93DF93F62E58
:103E90008E3109F05CC09A0184E04030580710F080
:103EA0002FEF33E089011695079500501E4FB8019A
:103EB00080E090E00050124024EF31E040E050E01C
:103EC0000E946942E4E09695879577956795EA9513
:103ED000D1F7EB01C05CD04E60E072E0601B710B6B
:103EE00080E090E00E94694214E09695879577956E
:103EF00067951A95D1F7605C704E40E050E09A01EA
:103F0000220F331F240F351FF901EE0FFF1FEE0F95
:103F1000FF1FE853F34F8285803F09F05EC0F9012F
:103F2000EE0FFF1FFF2039F4EE0FFF1FE653F34F94
:103F30007183608306C0EE0FFF1FE653F34FD183FA
:103F4000C0834F5F5F4F48305105C9F640C088308D
:103F500008F043C0082F10E0F801EE0FFF1FE00F3C
:103F6000F11FEE0FFF1FEE0FFF1FE853F34F828587
:103F7000803F99F59A0184E04030580710F02FEF08
:103F800033E0E801CC0FDD1F36952795FF2009F5BA
:103F900060E072E0621B730B80E090E024EF31E0A0
:103FA00040E050E00E946942E4E09695879577955D
:103FB0006795EA95D1F7605C704EC00FD11FCC0FAA
:103FC000DD1FCC0FDD1FC653D34F7983688381E09B
:103FD00005C020503E4FB901DFCF80E0DF91CF9187
:103FE0001F910F91FF900895EF92FF920F931F93EF
:103FF000CF93DF93E82F7B0184E06030780720F0D7
:10400000FFEFEF2EF3E0FF2EEA01F4E040305F0710
:1040100010F0CFEFD3E0CE15DF0508F4AFC0EE31DE
:1040200009F054C0B70180E090E024EF31E040E0B7
:1040300050E00E946942E4E09695879577956795F0
:10404000EA95D1F78B01005C104EBE0180E090E054
:104050000E94694224E096958795779567952A9501
:10406000D1F7605C704E80E090E0BFE0A0EF40E4EC
:104070005FE120E23CE9E114F10499F4209789F42E
:10408000FC01EE0FFF1FE80FF91FEE0FFF1FEE0FF1
:10409000FF1FE853F34FA28757834683318720875A
:1040A00010C0FC01EE0FFF1FE80FF91FEE0FFF1FFE
:1040B000EE0FFF1FE853F34FB28717830683718714
:1040C0006087019688309105B1F656C0E83008F057
:1040D00055C0E114F104D1F42097C1F48E2F90E083
:1040E000FC01EE0FFF1FE80FF91FEE0FFF1FEE0F91
:1040F000FF1FE853F34F80EF828780E49FE19783AF
:10410000868380E29CE99187808736C08E2F90E07D
:104110008C01000F111F080F191F000F111F000F36
:10412000111F0853134F8FE0F8018287B70180E019
:1041300090E024EF31E040E050E00E946942B4E0BA
:104140009695879577956795BA95D1F7605C704E8F
:10415000F80177836683BE0180E090E00E946942A7
:10416000A4E09695879577956795AA95D1F7605CB9
:10417000704EF8017187608781E001C080E0DF91B7
:10418000CF911F910F91FF90EF900895EF92FF92C2
:104190000F931F93CF93DF937B018A01883010F038
:1041A00080E03FC090E0EC01CC0FDD1FC80FD91FAD
:1041B000CC0FDD1FCC0FDD1FC853D34F8A85803F46
:1041C00039F4FA0111821082FB011182108228C099
:1041D0006885798560547F4180E090E022E830E096
:1041E00040E050E00E946942BCE096958795779543
:1041F0006795BA95D1F7F801718360836E817F81ED
:1042000060547F4180E090E00E946942ACE0969566
:10421000879577956795AA95D1F7F70171836083A4
:1042200081E0DF91CF911F910F91FF90EF90089562
:10423000CF93DF93EB01883010F080E022C090E054
:10424000FC01EE0FFF1FE80FF91FEE0FFF1FEE0F2F
:10425000FF1FE453F34F6081718160547F4180E020
:1042600090E022E830E040E050E00E9469423CE00B
:1042700096958795779567953A95D1F77983688371
:1042800081E0DF91CF910895CF93DF938E3109F0D4
:104290006DC040E050E061E0CA01880F991F840FB3
:1042A000951F880F991F880F991FDC011296FD0139
:1042B000E853F34F20813181FC01E853F34F8085AF
:1042C00091858217930738F480859185A859B34F5B
:1042D00011969C938E93CA01880F991F840F951F86
:1042E000880F991F880F991FDC011296FD01E85372
:1042F000F34F20813181FC01E853F34F8681978190
:104300002817390738F486819781A859B34F119639
:104310009C938E93FA01EE0FFF1FE40FF51FDF0150
:10432000AA0FBB1FAA0FBB1F9D012853334FE901E2
:1043300088819981A859B34F11969C938E93EE0F63
:10434000FF1FEE0FFF1F3296DF01A853B34F8D9171
:104350009C91E859F34F918380836B874F5F5F4F48
:104360004830510509F098CF81E069C0883010F0DD
:1043700080E065C0482F50E0CA01880F991F840F64
:10438000951F880F991F880F991FDC011296FD0158
:10439000E853F34F20813181FC01E853F34F8085CE
:1043A00091858217930738F480859185A859B34F7A
:1043B00011969C938E93CA01880F991F840F951FA5
:1043C000880F991F880F991FDC011296FD01E85391
:1043D000F34F20813181FC01E853F34F86819781AF
:1043E0002817390738F486819781A859B34F119659
:1043F0009C938E93FA01EE0FFF1FE40FF51FDF0170
:10440000AA0FBB1FAA0FBB1F9D012853334FE90101
:1044100088819981A859B34F11969C938E93EE0F82
:10442000FF1FEE0FFF1F3296DF01A853B34F8D9190
:104430009C91E859F34F9183808381E08B87DF91D2
:10444000CF9108958E31A1F480E090E0FC01EE0F51
:10445000FF1FE80FF91FEE0FFF1FEE0FFF1FE853BE
:10446000F34F138601968830910581F781E0089516
:10447000883010F080E0089590E0FC01EE0FFF1FFF
:10448000E80FF91FEE0FFF1FEE0FFF1FE853F34F6A
:10449000138681E008951F920F920FB60F92112498
:1044A00015BA0F900FBE0F901F9018951F93CF93C2
:1044B000DF9310915C071F5F183008F010E015BA09
:1044C000612F70E0FB01EE0FFF1FE60FF71FEE0FED
:1044D000FF1FEE0FFF1FE853F34F8385813071F408
:1044E00025B3FB01E55AF84F328181E090E002C02C
:1044F000880F991F3A95E2F7282B25BB9B01220FC5
:10450000331F260F371FE901CC0FDD1FCC0FDD1F36
:10451000C659D34F48815981D901AA0FBB1FAA0F91
:10452000BB1FA459B34F8D919C911197481B590BF8
:1045300014161506A4F4F901EE0FFF1FEE0FFF1F6E
:10454000E859F34F8081918184179507D8F42D9114
:104550003C91119780819181820F931F1DC041155D
:104560005105E9F0F901EE0FFF1FEE0FFF1FE859AB
:10457000F34F2081318188279927841B950B2817B9
:10458000390718F08881998107C08D919C91119706
:1045900020813181821B930B11969C938E93FB019A
:1045A000EE0FFF1FE60FF71F3196EE0FFF1FEE0F06
:1045B000FF1FDF01A859B34F8D919C911197E853CC
:1045C000F34F918380838D919C91E091AF07F0919F
:1045D000B007099510935C07DF91CF911F91089563
:1045E000DF92EF92FF920F931F93CF93DF9310927E
:1045F0005B078091AA0787FD09C080915B07807CDB
:1046000080935B0780915B078B6199C040E050E02D
:10461000C4E5D8E060EC7DE520E4E22E2FE1F22E47
:1046200006E31CE99FE0D92EDA01AA0FBB1FA40FF5
:10463000B51FCD01880F991F880F991FFC01E859FC
:10464000F34FD183C0839C012E5F3F4FF901E8599E
:10465000F34F718360831196AA0FBB1FAA0FBB1F74
:10466000FD01E859F34F718360838853934FFC0138
:10467000F782E68211870087D183C0832853334FA6
:10468000F90171836083A853B34F11967C936E93A5
:10469000FC011386D2864F5F5F4F4830510521F6EB
:1046A00081E080935D0710925E0783E080935F074F
:1046B00082E08093600785E08093610784E08093C7
:1046C000620787E08093630786E080936407109217
:1046D0005C078FEF84BB15BA82E49EE1909372076A
:1046E0008093710784E491E2909374078093730739
:1046F00084EF9FE1909366078093650786EC90E2D4
:10470000909368078093670788E191E290936A0726
:104710008093690782E292E290936C0780936B0723
:1047200083EF9EE190936E0780936D0782E49FE193
:104730009093700780936F0780915B0780688093E8
:104740005B07DF91CF911F910F91FF90EF90DF906A
:10475000089510926D0010926C008FEF84BB15BA13
:1047600085B7806885BF089585B78F7785BF089521
:104770008F778CBF08958CB780688CBF08958CB7F5
:104780008F778CBF089528E088E190E00FB6F89409
:10479000A89581BD0FBE21BD94E6892F8A95F1F7BA
:1047A000FCCF14BE88E10FB6F89481BD11BC0FBEDA
:1047B00085B78F7785BF8CB78F778CBF89EA93E2F7
:1047C00090937B0780937A0784EB93E290937D0725
:1047D00080937C078BEB93E2909381078093800713
:1047E0008FEB93E2909383078093820788EB93E2A9
:1047F00090937F0780937E0783EC93E290938507E5
:104800008093840780E88093770708956F9A0895CE
:104810006F980895982F82FF02C0709A01C0709817
:104820008DB193708C7F892B8DB908959DB1880FC0
:10483000680F6370660F660F937F962B9DB908957E
:10484000813051F4C298C39AC198C09ABA9ABB9861
:10485000B99AB89A6C9A0895C298C39AC198C09AA6
:10486000BA98BB9AB998B8986C9808958FB908957A
:10487000682FE0917706F091780687E897E0099530
:104880000895DF93CF930F92CDB7DEB71982809151
:1048900091078823A1F481E080939107E0917B0642
:1048A000F0917C0687E897E00995809390078F70D8
:1048B00090918F079295907F982B998328C0813093
:1048C00001F5E0917906F0917A0687E897E0BE015C
:1048D0006F5F7F4F0995882339F480918607807C2C
:1048E00088618093860718C0E0917506F09176067E
:1048F00087E897E00995813051F482E08093910731
:1049000006C080919207813039F480EF8983C09886
:10491000B099FECF89818FB90F90CF91DF91089523
:1049200080919207882351F480919107813019F486
:1049300080939707089581E0809392070E94412415
:10494000089580919107882389F4809192078823A4
:1049500069F481E08093910790918F079295907F01
:10496000809190078F70982BC0989FB908951F92DF
:104970000F920FB60F920BB60F9211242F933F9305
:104980004F935F936F937F938F939F93AF93BF9357
:10499000EF93FF936FB190919207913059F5809109
:1049A0009307882359F4862F8F708093940762951C
:1049B0006F7060939507909393071CC08091950743
:1049C000813039F4E0917706F091780686E798E037
:1049D0000995809196078F5F809396079091940731
:1049E000891740F01092960710929407109293073F
:1049F00010929207C09A80919707813021F480939A
:104A000092071092970780919207882311F40E94D1
:104A10004124FF91EF91BF91AF919F918F917F9131
:104A20006F915F914F913F912F910F900BBE0F901F
:104A30000FBE0F901F901895FB01C0988FB980E0B2
:104A400090E008C0019622E08D3B920719F4C09ACD
:104A500084E00895779BF6CF8FB18083C09A80E081
:104A6000089510928607E0917306F091740687E826
:104A700097E060E209958091870787FD05C08091E6
:104A80008607807C89604EC081E00E94202480E0FF
:104A90000E940A246F9A10928F071092900782E06A
:104AA00080939107109292071092930710929407A7
:104AB0001092950710929607109297076E9A86E0CB
:104AC00094E290939B0780939A0788E094E29093F6
:104AD0009D0780939C078AE094E290939F078093C0
:104AE0009E0786E194E29093A1078093A00780E25D
:104AF00094E29093A3078093A20786E394E29093B5
:104B0000A5078093A4078CE195E29093A707809373
:104B1000A60788E394E29093A9078093A807809161
:104B20008607806880938607089523B7982F927030
:104B3000990F990F990F81708295880F880F807C4B
:104B4000982B277B922B93BF08959FB5282F237016
:104B50009C7F292B2FBD9EB58C70880F977E982B3C
:104B60009EBD0895EBE8F0E09081282F23709C7F94
:104B7000292B2083EAE8F0E090818C70880F977EE3
:104B8000982B908308959EB58770987F892B8EBD52
:104B90000895EAE8F0E090818770987F892B808300
:104BA00008959DBD8CBD08959093890080938800E1
:104BB0000895382F883058F427B781E090E002C07C
:104BC000880F991F3A95E2F7282B27BF0895809107
:104BD0007D00816080937D000895382F883068F4CF
:104BE00020917D0081E090E002C0880F991F3A95E6
:104BF000E2F7282B20937D00089580917D0082604C
:104C000080937D000895382F883060F427B781E0C5
:104C100090E002C0880F991F3A95E2F780958223B1
:104C200087BF089580917D008E7F80937D000895D9
:104C3000382F883060F420917D0081E090E002C040
:104C4000880F991F3A95E2F78095822303C08091DF
:104C50007D008D7F80937D0008958295880F880F59
:104C6000807C9FB59F73982B9FBD08958295880F78
:104C7000880F807CEBE8F0E090819F73982B908305
:104C8000089583709FB58295807F9F7C892B8FBD0F
:104C900008958370EBE8F0E090818295807F9F7C9F
:104CA000892B808308959BBD8ABD089590938700CA
:104CB00080938600089599BD88BD089590938500DE
:104CC00080938400089597BD86BD089590938100D8
:104CD0008093800008951092D60780E287BD8FEF01
:104CE00086BD84E08BBD1ABC80E00E94A5258EB5F0
:104CF000887F8EBD83E596E29093DC078093DB0787
:104D00008BE596E29093DE078093DD0783E696E2DB
:104D10009093E2078093E10785EA95E29093E40798
:104D20008093E30783EC95E29093E6078093E50791
:104D300081ED95E29093DA078093D9078DE296E2B0
:104D40009093E8078093E70781E496E29093EA075F
:104D50008093E90789ED95E29093EE078093ED0744
:104D600083E096E29093F0078093EF078091D60757
:104D700080688093D607089593B78770987F892BB2
:104D800083BF089582BF089597B721E030E002C045
:104D9000220F331F8A95E2F7922B97BF089597B79A
:104DA00021E030E002C0220F331F8A95E2F7209500
:104DB000292327BF08951092C50783B7887F83BF33
:104DC00080E00E94952583E882BF83B7887F866054
:104DD00083BF87B7816087BF85E995E29093CD0750
:104DE0008093CC078CEB96E29093CF078093CE070D
:104DF00082EC96E29093C9078093C80784EC96E210
:104E00009093D3078093D2078FEC96E29093D507C7
:104E10008093D4078091C50780688093C507089563
:104E20001092AA078CE987BD90E496BD8FE18BBDF7
:104E30009ABD80E00E94B225EAE8F0E08081887F98
:104E4000808386E596E29093B0078093AF078EE566
:104E500096E29093B2078093B10786E696E290932C
:104E6000B6078093B50782EB95E29093B8078093DD
:104E7000B70789EC95E29093BA078093B90784ED60
:104E800095E29093AE078093AD0786E396E2909308
:104E9000BC078093BB0789E496E29093BE0780939A
:104EA000BD078DEE95E29093C2078093C10788E11C
:104EB00096E29093C4078093C3078081887F8160C6
:104EC000808384E00E94ED2582E00E94ED258091A0
:104ED000AA0780688093AA0708959A01AB018823E6
:104EE00049F4599894E0220F331F441F551F9A9597
:104EF000D1F708C0599A83E0220F331F441F551F72
:104F00008A95D1F760E074E284EF90E00E94A742B6
:104F1000C9012150304030939000815089B90895E3
:104F20009A01AB01882369F480919B008D7F809367
:104F30009B0074E0220F331F441F551F7A95D1F751
:104F40000CC080919B00826080939B0063E0220FE5
:104F5000331F441F551F6A95D1F760E074E284EF58
:104F600090E00E94A742C901215030403093980040
:104F70008150809399000895D998D89A5E9A5D9B44
:104F8000FECF8CB95E9BFECFD898D99A08951F9317
:104F9000182FE0917506F09176068BE198E009955F
:104FA000882371F0E0917706F09178068BE198E024
:104FB000612F099580919A00806280939A0008C0C1
:104FC000E0917706F09178068BE198E0612F0995E2
:104FD0001F910895682FE0917706F09178068AEF87
:104FE00097E009950895682FE0917706F09178068B
:104FF0008BE198E0099508950F931F93DF93CF936A
:105000000F92CDB7DEB71982D998D89A8E010F5F6B
:105010001F4F05C05D9BFECF5E9A89818CB9E091E0
:105020007906F0917A068AEF97E0B801099588230E
:1050300089F75E9BFECFD898D99A0F90CF91DF91D8
:105040001F910F910895EAE9F0E0808180628083EA
:105050000895E0917F06F091800683E198E009953C
:105060000895E0917F06F091800682EF97E0099520
:105070000895BC01E0917906F0917A0682EF97E0FD
:105080000995811181E00895BC01E0917906F091C4
:105090007A0683E198E00995811181E00895E09115
:1050A0007506F091760682EF97E0099590E08823E7
:1050B00009F491E0892F0895E0917506F091760644
:1050C00083E198E0099590E0882309F491E0892F25
:1050D00008951092F107E0917306F091740682EF43
:1050E00097E060E40995E0917306F09174068AEF09
:1050F00097E060EC09958091F20787FD05C08091EB
:10510000F107807C89604CC0109811981898199804
:10511000D19AD09AD99AD8981092900081E089B902
:10512000599A5898549A539A52988091950084604D
:1051300080939500809195008260809395005798A8
:10514000559856988DE697E2909305088093040849
:105150008CEB97E2909307088093060889E398E226
:1051600090930908809308088AEE97E290930B08C1
:1051700080930A088CEF97E290930D0880930C08B7
:105180008FE498E290930F0880930E0881E398E2F1
:105190009093110880931008579A8091F1078068C6
:1051A0008093F107089510921208E0917306F09130
:1051B000740683E198E06FEF0995E0917306F09132
:1051C00074068BE198E060E809958091130887FDEB
:1051D00005C080911208807C89606DC08A988B9888
:1051E000929893981092980080E180939900809112
:1051F0009B00826080939B0080919B008E7F8093B8
:105200009B0080919A00806180939A0080919A001F
:10521000886080939A0080919A008B7F80939A0097
:1052200080919D00846080939D0080919D008260AC
:1052300080939D0080919A008F7780939A0080914F
:105240009A008F7B80939A0080919A008F7D809343
:105250009A0080E997E2909326088093250887ECCE
:1052600097E2909328088093270884E498E290932B
:105270002A088093290883EF97E290932C08809363
:105280002B0883E298E290932E0880932D088CE5FA
:1052900098E29093300880932F0889E298E29093E7
:1052A00032088093310880919A00806880939A0038
:1052B0008091120880688093120808951F920F92BF
:1052C0000FB60F920BB60F9211242F933F934F936B
:1052D0005F936F937F938F939F93AF93BF93EF935E
:1052E000FF93E0917506F09176068AEF97E00995B5
:1052F000882311F0D898D99AFF91EF91BF91AF917F
:105300009F918F917F916F915F914F913F912F91DD
:105310000F900BBE0F900FBE0F901F9018951F920D
:105320000F920FB60F920BB60F9211242F933F934B
:105330004F935F936F937F938F939F93AF93BF939D
:10534000EF93FF936CB1E0917706F091780682EFCE
:1053500097E00995FF91EF91BF91AF919F918F9148
:105360007F916F915F914F913F912F910F900BBE65
:105370000F900FBE0F901F9018951F920F920FB6AF
:105380000F920BB60F9211242F933F934F935F937D
:105390006F937F938F939F93AF93BF93EF93FF93FD
:1053A00060919C00E0917706F091780683E198E0A7
:1053B0000995FF91EF91BF91AF919F918F917F914F
:1053C0006F915F914F913F912F910F900BBE0F9076
:1053D0000FBE0F901F9018951F920F920FB60F924D
:1053E0000BB60F9211242F933F934F935F936F93BC
:1053F0007F938F939F93AF93BF93EF93FF93DF932D
:10540000CF930F92CDB7DEB71982E0917906F09174
:105410007A068AEF97E0BE016F5F7F4F0995882378
:1054200019F089818CB901C055980F90CF91DF9107
:10543000FF91EF91BF91AF919F918F917F916F916C
:105440005F914F913F912F910F900BBE0F900FBE28
:105450000F901F9018951F920F920FB60F920BB6D8
:105460000F9211242F933F934F935F936F937F93EA
:105470008F939F93AF93BF93EF93FF93DF93CF935C
:105480000F92CDB7DEB71982E0917906F0917A06D6
:105490008BE198E0BE016F5F7F4F0995882321F073
:1054A000898180939C0005C080919A008F7D8093B4
:1054B0009A000F90CF91DF91FF91EF91BF91AF9143
:1054C0009F918F917F916F915F914F913F912F911C
:1054D0000F900BBE0F900FBE0F901F901895EF927C
:1054E000FF920F931F93282F7A018B0190919107C0
:1054F000923071F080E090E0019627E089309207C9
:10550000D9F780917508807C8460809375083AC0D3
:1055100083E08093910790938F07E0917706F09155
:10552000780687E897E0622F0995E0917706F09179
:10553000780687E897E06E2D09955527412F302F83
:105540002F2DE0917706F091780687E897E0622F9B
:105550000995980144275527E0917706F091780640
:1055600087E897E0622F0995212F33274427552795
:10557000E0917706F091780687E897E0622F099529
:10558000109291071F910F91FF90EF900895682F4F
:1055900080919107823071F080E090E0019627E0E1
:1055A00089309207D9F780917508807C8460809358
:1055B0007508089583E08093910780938F07E091A9
:1055C0007706F091780687E897E0099510929107A1
:1055D0000895682FE0917706F09178068EE798E0BD
:1055E000099508950F931F93DF93CF930F92CDB733
:1055F000DEB780919107823071F080E090E00196F3
:1056000027E089309207D9F780917508807C846003
:10561000809375081AC0198283E080939107809364
:105620008F078E010F5F1F4F06C0E091A807F09112
:10563000A90789810995E0918C08F0918D08C8012E
:105640000995882391F7109291070F90CF91DF91E0
:105650001F910F910895BC01E0917906F0917A06AF
:1056600086E798E00995811181E00895E09175063B
:10567000F091760686E798E0099590E0882309F492
:1056800091E0892F0895109275088091860787FD13
:1056900005C080917508807C8B6140C0E0917306E5
:1056A000F091740686E798E060E40995E09173064E
:1056B000F09174068EE798E060E409958091760891
:1056C00087FD05C080917508807C896027C08FE6C2
:1056D0009AE2909389088093880887EC9AE29093E5
:1056E0008B0880938A088BE29BE290938D088093CD
:1056F0008C0889EE9AE290938F0880938E0882EF4F
:105700009AE2909391088093900886E39BE29093AD
:10571000930880939208809175088068809375083B
:1057200008959C01CB01F62FE92F621773071CF433
:10573000C901F22FE92F8F2F9E2F841795070CF4A4
:10574000CA018217930719F421E030E008C08617D8
:10575000970719F023E030E002C022E030E0C901F1
:1057600008959C01CB01F62FE92F261737071CF46B
:10577000C901F22FE92F8F2F9E2F481759070CF4DC
:10578000CA018217930719F421E030E008C0861798
:10579000970719F023E030E002C022E030E0C901B1
:1057A00008950F931F93CF93DF938C01C0E0D0E057
:1057B0001AC061E070E080E090E00E94670060E065
:1057C00070E080E090E00E9496002091A008309167
:1057D000A108442737FD4095542F2617370748075F
:1057E000590724F42196C017D1071CF3DF91CF91FC
:1057F0001F910F910895EF92FF920F931F9360E016
:1058000070E080E090E00E9496007B018C0164E6ED
:1058100070E080E090E00E94670060E070E080E06F
:1058200090E00E9496009B01AC012E193F09C9012E
:105830001F910F91FF90EF90089560E070E080E07D
:1058400090E00E9496002091A0083091A108442782
:1058500037FD4095542F62177307840795071CF492
:1058600081E090E008950895EF92FF920F931F93C7
:1058700064E070E080E090E025EF31E040E050E04F
:10588000E12CE2E0FE2E012D112D0E94050165E0C4
:1058900070E080E090E02BE332E040E050E00E94D6
:1058A00005010E94D2001F910F91FF90EF90089583
:1058B000EF92FF920F931F9364E070E080E090E01E
:1058C0002CE332E040E050E0E12CF2E0FF2E012D2D
:1058D000112D0E94050165E070E080E090E029EF65
:1058E00031E040E050E00E9405010E94D2001F918B
:1058F0000F91FF90EF900895EF92FF920F931F93F7
:1059000064E070E080E090E02AE132E040E050E0C6
:10591000E12CA2E0FA2E012D112D0E94050165E077
:1059200070E080E090E025E132E040E050E00E944D
:1059300005010E94D2001F910F91FF90EF900895F2
:10594000EF92FF920F931F9361E070E080E090E090
:105950002AEF32E040E050E0E12CB2E0FB2E012DD6
:10596000112D0E94050162E070E080E090E020E6E9
:1059700030E040E050E00E94050167E070E080E028
:1059800090E02BE430E040E050E00E94050168E048
:1059900070E080E090E027E331E040E050E00E94DA
:1059A00005010E94D2006CE271E080E090E00E946C
:1059B000670066E070E080E090E020E032E040E0E8
:1059C00050E00E94050163E070E080E090E020E09C
:1059D00032E040E050E00E9405010E94D2001F9199
:1059E0000F91FF90EF900895EF92FF920F931F9306
:1059F0007B019C01442737FD4095542F69E070E0FE
:105A000080E090E00E94DA00F094E194F108F394D1
:105A10000027F7FC0095102F6AE070E080E090E02E
:105A2000A80197010E94DA000E94D2001F910F91F5
:105A3000FF90EF900895EF92FF920F931F9364E011
:105A400070E080E090E02AE132E040E050E0E12CBC
:105A5000B2E0FB2E012D112D0E94050165E070E0E2
:105A600080E090E025E132E040E050E00E94050156
:105A700061E070E080E090E029E333E040E050E056
:105A8000A8E5EA2EA2E0FA2E012D112D0E940501B3
:105A900062E070E080E090E029EE30E040E050E02D
:105AA0000E94050163E070E080E090E025E032E0D4
:105AB00040E050E00E94050166E070E080E090E088
:105AC00029E931E040E050E00E94050167E070E024
:105AD00080E090E026EC30E040E050E00E940501DC
